:04000000FDEF2CF0F4
:1000080000C015F0F2A415D00001E54BE62B000E58
:10001800E65D02E17A0EE55D0AE3010E030182273F
:10002800000E8323842385230001E56BE66BF2949D
:10003800D66A9EA019D0010E0301F427000EF523FD
:10004800F623F723000E006EF71908E10050F619A1
:1000580005E10050F51902E1F451090A04E13B0EEB
:0E006800CF6ECE0ECE6E9E9015C000F0110031
:0A007600000EACB2010E006E120085
:0A008000000E9EBA010E006E120081
:10008A00AECF01F0ABA202D0AB98AB8801C000F0B2
:02009A00120052
:0A009C00000E72B2010E006E120099
:0A00A600000EA4BA010E006E120055
:1000B00074CF01F071A202D07198718801C000F074
:0200C00012002C
:1000C2000B840BAE6CEF00F0010E036E026A016A44
:0A00D200006A0A360232FF0E120027
:1000DC006BC4C9FFC7B002D00000FCD7C9CF00F079
:0200EC00120000
:0800EE000AAE029E000E120092
:1000F6000B820BAE85EF00F00368026801680068AA
:080106000A360232FF0E12005E
:0C010E0072B201D0FDD76BC473FF120069
:0E011A00ACB202D00000FCD76BC4ADFF1200E7
:100128006BC46FFF6DB002D00000FCD76FCF00F03A
:020138001200B3
:0A013A00850E0D6E0D2EFED712008B
:100144003A0E0C6E230E0D6E0D2EFED70C2EFCD720
:02015400120097
:0C015600020E0D6E0D2EFED700001200F0
:0E016200026A016A006A086A036A000E12004F
:100170000A6A0350D8A40A800750D8A40A820A50F9
:10018000D8B41BEF01F0030AD8B4D4EF00F00AB0E2
:10019000CFEF00F006AE19EF01F017EF01F002AE5D
:1001A00017EF01F019EF01F00250800B0A6E029E6A
:1001B0000650800B069E0A18D8B4E5EF00F00A50EE
:1001C000D8B417EF01F019EF01F00750035CD8B471
:1001D000EFEF00F0D8A00BEF01F011EF01F00650A7
:1001E000025CD8B4F9EF00F0D8A00BEF01F011EFEA
:1001F00001F00550015CD8B403EF01F0D8A00BEF7B
:1002000001F011EF01F00450005CD8B41BEF01F0D5
:10021000D8B011EF01F00A52D8B419EF01F017EF7E
:1002200001F00A52D8B417EF01F019EF01F0D880AD
:0E0230001200D8901200D880D884120012005C
:10023E0004016ABF02D08A9601D08A866ABD02D0B6
:10024E008A9401D08A846ABB02D08A9201D08A82B3
:10025E006AB902D08A9001D08A8003017FB102D0A0
:10026E008A8801D08A988A8A6FDF8A9A04016AB7CF
:10027E0002D08A9601D08A866AB502D08A9401D0BD
:10028E008A846AB302D08A9201D08A826AB102D07D
:10029E008A9001D08A8003017FB102D08A8801D072
:1002AE008A988A8A51DF8A9A7FA102D044DF01D0D0
:0402BE003DDF12000E
:1002C2000C6A0E6A0250D8A47AEF01F001C002F063
:1002D20000C001F0006A0E860250D8A47AEF01F045
:1002E20001C002F0016A0E960E880250D8B48CEF5B
:1002F20001F00E50035ED8A4D8A091EF01F0D8907F
:1003020002BE96EF01F0003601360236032E81EF6F
:1003120001F091EF01F0010E0C6E22DF99EF01F076
:10032200020E0C6ECDDE99EF01F0040E0C6EDEDED5
:020332001200B7
:10033400F250026EF29E0500FF6A0150FE6E0050FC
:08034400FD6E02BEF28E1200F4
:08034C000B6A0B86FF0E120084
:100354006AC46FFF6DB002D00000FCD76FCF00F00D
:02036400120085
:100366000CB0F5EF01F00CA29BEF02F00E6A000E46
:1003760002640CEF02F0F00E0214D8A4D7EF01F0DD
:10038600023A01380F0B02260138F00B016E0038D5
:100396000F0B01260038F00B006E08380F0B0026F5
:1003A6000838F00B086E0E84D89002BEF0EF01F00C
:1003B60008360036013602360E2A02BEF0EF01F08C
:1003C60008360036013602360E2A02BEF0EF01F07C
:1003D60008360036013602360E2A0E50036491EFB7
:1003E60002F0035E0BBC08AE96EF02F0D880800EDA
:1003F60008640030000E002201220222D8A096EFE7
:1004060002F0023201320032034A9BEF02F096EF0D
:1004160002F001C002F000C001F008C000F0086A56
:10042600000E0E86026443EF02F0F00E0214D8A40A
:100436002BEF02F0023A01380F0B02260138F00BBF
:10044600016E00380F0B01260038F00B006E0E848B
:10045600D89002BEF0EF01F00036013602360E2AC1
:1004660002BEF0EF01F00036013602360E2A02BE59
:10047600F0EF01F00036013602360E2AF0EF01F0F9
:1004860001C002F000C001F0006A000E0E960E8850
:10049600026470EF02F0F00E0214D8A45BEF02F0D3
:1004A600023A01380F0B02260138F00B016E0E845A
:1004B600D89002BEF0EF01F0013602360E2A02BED7
:1004C600F0EF01F0013602360E2A02BEF0EF01F01F
:1004D600013602360E2AF0EF01F001C002F0016A81
:1004E600000E0E860264A0EF02F0F00E0214D8A4ED
:1004F6007FEF02F0023A0E84D89002BEF0EF01F0D0
:1005060002360E2A02BEF0EF01F002360E2A02BEB5
:10051600F0EF01F002360E2AF0EF01F0010E0C6E3C
:10052600CDDDA3EF02F0020E0C6EDEDDA3EF02F0CE
:10053600040E0C6EDDDDA3EF02F0080E0C6E0EDE6F
:020546001200A1
:10054800620E046E040E056E030E0424E96E000E9E
:100558000520EA6E7E0EEE5C006E016A000E015AFE
:1005680066C4E1FF67C4E2FF00C0E6FF01C0E6FF22
:10057800030E0424E16E000E0520E26E7E0EE66E88
:1005880062C400F063C401F064C402F065C403F0FF
:0205980012004F
:0E059A0003017F9162C46AF44DDE7F8112007E
:1005A800025006180E6E086A096A0B6A035007643F
:1005B800C7EF03F006500A6E068E028E03500B6ECC
:1005C8000750036E000E0B6417EF03F00B50075E25
:1005D800D8B4B8EF03F0070E076486EF03F0075EA0
:1005E80000C008F001C000F002C001F0026A074E26
:1005F800B8EF03F007645BEF03F0075E00C008F094
:1006080001C000F0016A074EB8EF03F0076439EF44
:1006180003F0075E00C008F0006A074EB8EF03F069
:10062800076420EF03F00AC002F005C001F004C01F
:1006380000F0086AE2EF04F0030E07642BEF03F002
:10064800075E08380F0B086E074EB8EF03F0D89016
:100658000832074EB8EF03F0D8900832074EB8EFCB
:1006680003F0D8900832B8EF03F0030E07644AEF9E
:1006780003F0075E08380F0B086E0038F00B0826E9
:1006880000380F0B006E074EB8EF03F0D890003219
:100698000832074EB8EF03F0D89000320832074E00
:1006A800B8EF03F0D89000320832B8EF03F0030E29
:1006B800076472EF03F0075E08380F0B086E003806
:1006C800F00B082600380F0B006E0138F00B0026DF
:1006D80001380F0B016E074EB8EF03F0D8900132C6
:1006E80000320832074EB8EF03F0D89001320032DA
:1006F8000832074EB8EF03F0D890013200320832C2
:10070800B8EF03F0030E0764A3EF03F0075E0838A1
:100718000F0B086E0038F00B082600380F0B006E20
:100728000138F00B002601380F0B016E0238F00B70
:10073800012602380F0B026E074EB8EF03F0D8906F
:100748000232013200320832074EB8EF03F0D89077
:100758000232013200320832074EB8EF03F0D89067
:100768000232013200320832096A000E0EAEACEFD6
:1007780004F0081E001E011E021E082A0022012283
:100788000222ACEF04F00750D8A4CDEF03F0E2EF5B
:1007980004F0096A02C00AF0028E068E0750035C54
:1007A800076ED8B49FEF04F0070E07646DEF04F0EE
:1007B800075E0450096E0550046E0650056E066A01
:1007C800074E9FEF04F0070E076442EF04F0075E40
:1007D8000450096E0550046E056A074E9FEF04F039
:1007E800070E076420EF04F0075E0450096E046AE0
:1007F800074E9FEF04F0070E076407EF04F00AC0E6
:1008080002F0E2EF04F0030E076412EF04F0075E53
:1008180009380F0B096E074E9FEF04F0D890093284
:10082800074E9FEF04F0D8900932074E9FEF04F06F
:10083800D89009329FEF04F0030E076431EF04F0FB
:10084800075E09380F0B096E0438F00B09260438C7
:100858000F0B046E074E9FEF04F0D8900432093254
:10086800074E9FEF04F0D89004320932074E9FEFED
:1008780004F0D890043209329FEF04F0030E0764A5
:1008880059EF04F0075E09380F0B096E0438F00BB6
:10089800092604380F0B046E0538F00B04260538BA
:1008A8000F0B056E074E9FEF04F0D8900532043207
:1008B8000932074E9FEF04F0D8900532043209320E
:1008C800074E9FEF04F0D8900532043209329FEFAB
:1008D80004F0030E07648AEF04F0075E09380F0B73
:1008E800096E0438F00B092604380F0B046E05381E
:1008F800F00B042605380F0B056E0638F00B05269D
:1009080006380F0B066E074E9FEF04F0D89006329C
:10091800053204320932074E9FEF04F0D8900632B0
:10092800053204320932074E9FEF04F0D8900632A0
:10093800053204320932086A000E0EAEACEF04F03C
:10094800091E041E051E061E092A04220522062267
:1009580009500826045000220550012206500222A0
:100968000EBEC3EF04F0D8A0D2EF04F00232013279
:1009780000320832033ED2EF04F0DCEF04F0D8B0C6
:10098800D7EF04F0000E081E001E011E021E082AE2
:100998000022012202220A7ED7EF04F0010E0C6E1B
:1009A800DEDCE4EF04F0020E0C6ED9DCE4EF04F0B8
:1009B800040E0C6E7BEC00F0E4EF04F0000E0C6EFD
:0209C80012001B
:1009CA00620E0401686F040E696F030E6825D96E02
:1009DA00000E6921DA6EDE506625016E000E67216F
:1009EA00026E01C066F402C067F4800E0218006E3F
:1009FA00800E005C02E1000E015C05E2006A016AF9
:100A0A00026A036A3FD0800E006E800E6719005C8E
:100A1A0002E16651FF0826E2046A056A066A076A65
:100A2A0062C400F063C401F064C402F065C403F058
:100A3A00B8EC00F0010ED8B0000E006E005209E0CA
:100A4A00FF0E006EFF0E016EFF0E026EFF0E036EAA
:100A5A0019D0FF0E006EFF0E016E7F0E026EFF0EA2
:100A6A00036E10D0030E6825E16E000E6921E26E56
:100A7A0066C4E6FF62C400F063C401F064C402F015
:060A8A0065C403F0120038
:100A90000450000A12E10550000A0FE10650000A56
:100AA0000CE10750000A09E1FF0E006EFF0E016E17
:100AB0007F0E026EFF0E036EA8D0086A096A075007
:100AC000D8B4F3EF05F00350D8B4F8EF05F00250B6
:100AD00006180A6E028E068E0E6A02C008F001C069
:100AE0000CF000C00DF004500D5E0550D8A0053C80
:100AF0000C5E0650D8A0063C085E086A0C6A0D6AB7
:100B0000D8A08AEF05F0D8900232013200320832C4
:100B1000010E0E6E0750035ED8A097EF05F07E0E13
:100B20000E240326D8B0FDEF05F09DEF05F07E0EF4
:100B30000E240326D8A002EF06F0180E0B6E0D3619
:100B40000C3608360036013602360E360450005E8A
:100B50000550D8A0053C015E0650D8A0063C025EB8
:100B600006340E120EA0B8EF05F00D80C3EF05F0AD
:100B7000045000260550D8B0053C01260650D8B0D8
:100B8000062802260D900B2E9FEF05F0E9EF05F0E9
:100B9000D8900036013602360E360450005E0550FD
:100BA000D8A0053C015E0650D8A0063C025E063483
:100BB0000E10010B0D26D8B00C2AD8B4082AD8A4E0
:100BC000E9EF05F008320C320D32032AD8B4FDEFFC
:100BD00005F00AAE089E0850026E0C50016E0D50D2
:100BE000006E05EF06F0010EA6EC01F005EF06F031
:100BF000020EB1EC00F005EF06F0040E7BEC00F005
:0C0C000005EF06F0080E61EC00F0120099
:100C0C0062C402F063C403F002C000F003C001F040
:100C1C00024A032A00C0E9FF01C0EAFFEE5201E0DC
:100C2C00F3D704016251025C006E63510358016EEC
:0A0C3C00010E005E000E015A1200C6
:0C0C46003A0E0D6E0D2EFED700001200BD
:100C52000401666B8D9466C46AF4AAEC01F000C0CC
:100C620062F4000E0401636F66C46AF4AAEC01F038
:100C720000C064F4000E0401656F8D8462C401F04B
:0C0C8200006A645100126551011212005A
:100C8E00086A080E0C6E003408360450085ED8B0A0
:0E0C9E0002D00826D89000360C2EF5D7120092
:100CAC000B800BAE62EF06F0026A0AAEFF0E026E0C
:0C0CBC00016E006E0A360232FF0E1200BC
:100CC800086A096A000E07620364E9EF06F0025039
:100CD80006180A6E075003267E0ED8A07AEF06F093
:100CE800035ED8B0EEEF06F07EEF06F0035ED8A004
:100CF800F3EF06F0028E068E02C00EF001C00BF074
:100D080000C00DF000500402F4CF0CF001500502B1
:100D1800F4CF00F0F3CF08F00402F3500C26F4509F
:100D28000822000E00220D500502F3500C26F45044
:100D38000822000E002202500402F3500826F45044
:100D4800002202500502016A000E0122F35000261B
:100D5800F45001220D500602F3500826F4500022E8
:100D6800026A000E012202220B500602F3500026EE
:100D7800F4500122000E02220E500602F350012602
:100D8800F450022202BED1EF06F0083600360136D2
:100D980002360306D8B4F3EF06F0E4EF06F0D88085
:100DA800800E08640030000E002201220222D8A022
:100DB800E4EF06F0023201320032034AEEEF06F0A9
:100DC8000AAE029E000EF6EF06F0010EB1EC00F03E
:100DD800F6EF06F0020E7BEC00F0F6EF06F0040EDC
:060DE80061EC00F01200B6
:100DEE000050086E0150006E016A026A036A0B6AB7
:100DFE000C6A960E036E0A6A00C001F008C000F07D
:0A0E0E00086A026A61EC01F01200AC
:100E18009AC3E1FF9BC3E2FF62C4E6FF98C300F0F8
:0A0E280099C301F09AEC01F01200EA
:100E32000B6A0A6A096A00500402F4CF09F0F3CF80
:100E420008F001500502F4CF0BF0F3CF0AF0005086
:100E52000502F3500926F4500A22E86A0B220150D7
:100E62000402F3500926F4500A22E86A0B2208C051
:100E720000F009C001F00AC002F00BC003F012003A
:0E0E82008BC300F08CC301F09AEC01F012005B
:0E0E900087C300F088C301F09AEC01F0120055
:100E9E0062C402F063C403F065C400F066C401F0DE
:100EAE00010E0401655F000E665B0050011009E043
:100EBE0002C0E1FF03C0E2FF64C4E6FF024A032A58
:0C0ECE00EBD762C400F063C401F0120016
:100EDA0003500718D8A481EF07F002500618D8A4C7
:100EEA0081EF07F001500518D8A481EF07F00050F0
:0E0EFA000418D8B4D8841200D8941200120044
:100F0800086A096A100E0C6E013408360936045056
:100F1800085E0550D8A0053C095ED8B007D004503B
:100F280008260550D8B0053C0926D8900036013669
:060F38000C2EEAD71200A6
:100F3E000050086E0150006E0250016E0350026E9A
:100F4E00036A0B6A0C6A9E0E036E0A6A020E0C6E20
:060F5E00B3EC01F01200EB
:100F6400220E0C6E086A096A0A6A0B6A0C06D8B467
:100F74001FD0D8900B320A320932083203320232BF
:100F840001320032D8A0F2D70C06D8B409D00450EC
:100F940008260550092206500A2207500B22EAD7D8
:100FA400045008260550092206500A2207500B2235
:020FB400120029
:100FB600040E04015227000E5323550E626F29DFDB
:100FC600AA0E0401626F25DF740E0401626F21DF31
:100FD6000401626B1EDF52C462F41BDF53C462F469
:100FE60018DF4FC462F415DF0401626B12DF040ED2
:100FF6000401525F000E535B52C462F40ADF53C40D
:1010060062F407DF04015E6B5F6B010E525D606F79
:10101600000E5359616F5F51615D02E15E51605D83
:1010260013E35E515025E96E5F515121EA6EEECF12
:1010360062F4EFDE04015F51611902E160515E194D
:1010460003E05E4B5F2BE1D7450E626FE2DE0101E6
:101056001D51030182250401576F01011E51030131
:1010660083210401586F01011F51030184210401EA
:10107600596F010120510301852104015A6F5E6BEE
:101086005F6B5C6B5D6B04015A510301855D0EE17C
:10109600040159510301845D09E10401585103011A
:1010A600835D04E1040157510301825D04E3640E8C
:1010B6000401566FE0D0E9DE0052D8B4DBD0DEDEA4
:1010C60000C05BF4000E04015F1902E1000E5E1918
:1010D600FF0ED8A4000E026E0050550AFF0ED8A4CB
:1010E600000E016E01500214036E000E5F1902E13C
:1010F600010E5E19FF0ED8A4000E026E0050AA0A59
:10110600FF0ED8A4000E016E025001160150031204
:10111600000E5F1902E1020E5E19FF0ED8A4000E42
:10112600026E00501C0AFF0ED8A4000E016E02507B
:10113600011601500312000E5F1902E1030E5E193B
:10114600FF0ED8A4000E026E0050000AFF0ED8A4AF
:10115600000E016E01500214006E0350001203E0EF
:101166005E4B5F2B90D7000E006E5F51005C02E174
:101176005E5103081FE3000E5F1902E1020E5E19BD
:10118600FF0ED8A4000E016E5B51010AFF0ED8A413
:10119600000E006E0150001605E0010E5D6F5E4BFD
:1011A6005F2B07D05E6B5F6B5B51550A02E15E4BAE
:1011B6005F2B69D75D51010AFF0ED8A4000E016EA0
:1011C600000E5F1902E1060E5E19FF0ED8A4000E8E
:1011D600006E005001165B51FF0AFF0ED8A4000EE8
:1011E600006E0150001603E0010E5C6F39D05C51B1
:1011F600010AFF0ED8A4000E016E000E5F1902E16F
:10120600080E5E19FF0ED8A4000E006E01500016DF
:1012160003E05BC456F42FD0000E5F1902E1060E00
:101226005E1907E154C4E1FF55C4E2FF5BC4E6FF63
:1012360017D0000E5F1902E1070E5E1909E1010ED3
:101246005425E16E000E5521E26E5BC4E6FF08D020
:10125600000E5F1902E1080E5E1902E1566B0BD013
:10126600000E006E5F51005C02E15E51030802E26F
:0C1276005E4B5F2B08D756C400F012003E
:101282000301D96BDA6BDB6BDC6BE2DC00C0D2F3FF
:1012920001C0D3F30F0E046E00C002F001C003F0D0
:1012A200045005E003320232039EFF0FFAD7000E0C
:1012B200031802E1000E02184DE1FF0E0301D215E0
:1012C200016ED3511F0B026E01C0D2F302C0D3F3E1
:1012D2000250100802E1015000081DE2000ED25D2A
:1012E200006E100ED359016E00C0D2F301C0D3F3C9
:1012F2007DDDCD0E046ECC0E056E4C0E066E780EA4
:10130200076EE1DC00C0D9F301C0DAF302C0DBF3FF
:1013120003C0DCF31FD0D2C300F0D3C301F066DDFB
:10132200CD0E046ECC0E056E4C0E066E780E076E58
:10133200CADC000E046E000E056E800E066E7F0E75
:10134200076EC1DC00C0D9F301C0DAF302C0DBF3DF
:1013520003C0DCF3D9C300F0DAC301F0DBC302F04F
:06136200DCC303F01200E1
:101368000401526B030E525D0AE252515025E16EA0
:10137800000E5121E26E200EE66E522BF3D7525129
:101388005025E16E000E5121E26EE66A5207525175
:101398005025536F000E5121546F0A0E046E4FC42E
:1013A80000F071DC08C000F0300E002653C4E1FFE5
:1013B80054C4E2FF00C0E6FF0A0E046E4FC400F0FA
:1013C80062DC00C04FF40050000A01E102D052076D
:0413D800DED712004A
:1013DC0004014F074F074FC401F04F07015000089D
:1013EC0003E200000000F7D700000000000000003E
:0413FC0000001200DB
:101400000401516B526B4FC403F050C404F04FC43D
:1014100005F050C406F003C0E9FF04C0EAFFEE5037
:10142000200A04E15151521101E110D0010E516F17
:10143000000E526F03C0E9FF04C0EAFF05C0E1FFE0
:1014400006C0E2FFEECFE6FF054A062A03C001F020
:1014500004C002F0034A042A01C0E9FF02C0EAFF07
:10146000EE50000AD8E14FC400F050C401F0120061
:101470004FC404F050C405F051C406F052C407F044
:10148000006A016A026A036AB8EC00F0000ED8B084
:10149000010E006E005205E0006A016A026A036AEA
:1014A000F3D04FC453F450C454F451C455F452C44F
:1014B00056F4000E046E000E056E000E066E7F0ED2
:1014C000076E4FC400F050C401F051C402F052C482
:1014D00003F0B8EC00F0010ED8B0000E006E005220
:1014E0001AE053C404F054C405F055C406F056C4C1
:1014F00007F0000E006E000E016E000E026E7F0EF1
:10150000036E48EC05F000C053F401C054F402C06F
:1015100055F403C056F453C462F454C463F455C480
:1015200064F456C465F45C0E0401666F040E676FC4
:10153000A4EC02F000C053F401C054F402C055F40E
:1015400003C056F400C062F401C063F402C064F446
:1015500003C065F45CC466F45DC467F46733663346
:10156000679F67BD678FE5EC04F000C053F401C0CE
:1015700054F402C055F403C056F4000E046E000E7D
:10158000056E000E066E7F0E076E4FC400F050C44D
:1015900001F051C402F052C403F0B8EC00F0010EA7
:1015A000D8B0000E006E00521AE053C404F054C4C8
:1015B00005F055C406F056C407F0000E006E000E8C
:1015C000016E000E026E7F0E036E48EC05F000C047
:1015D00053F401C054F402C055F403C056F4140E81
:1015E00004015B6F53C404F054C405F055C406F005
:1015F00056C407F04FC400F050C401F051C402F0CB
:1016000052C403F048EC05F053C404F054C405F090
:1016100055C406F056C407F0D4EC02F0000E046E78
:10162000000E056E000E066E800E076E48EC05F08B
:1016300000C057F401C058F402C059F403C05AF472
:1016400053C404F054C405F055C406F056C407F062
:1016500044DC010ED8A4000E006E005201E00CD054
:1016600057C453F458C454F459C455F45AC456F4E6
:1016700004015B075B53B6E153C400F054C401F0AE
:0A16800055C402F056C403F0120036
:10168A00870E0401626F010E636F300E646F050EE0
:10169A00656F000E666F4FEC07F0100E046E270E92
:1016AA00056E4FC400F050C401F029DC08C000F0F8
:1016BA0009C001F0E80E046E030E056E20DC300E40
:1016CA0000240101876F2E0E886FE80E046E030E48
:1016DA00056E4FC400F050C401F011DC08C000F0E0
:1016EA0009C001F0640E046E000E056E08DC300EAF
:1016FA000024896F640E046E000E056E4FC400F05C
:10170A0050C401F084EC07F008C000F009C001F0F1
:10171A000A0E046E000E056E84EC07F0300E0024EB
:10172A008A6F0A0E046E000E056E4FC400F050C494
:10173A0001F084EC07F008C000F009C001F0300E97
:06174A0000248B6F120069
:10175000750E0401626F010E636F300E646F060E2A
:10176000656F000E666F4FEC07F00A0E046E000EF8
:10177000056E53C400F054C401F084EC07F0300E41
:1017800000240101756F0A0E046E000E056E53C42D
:1017900000F054C401F084EC07F008C000F009C068
:1017A00001F0300E0024766F2E0E776F0401535136
:1017B0004F5D006E54515059016E7D0E046E000E47
:1017C000056E19EC07F000C055F401C056F4100E78
:1017D000046E270E056E84EC07F008C000F009C007
:1017E00001F0E80E046E030E056E84EC07F0300E77
:1017F00000240101786FE80E046E030E056E55C4D7
:1018000000F056C401F084EC07F008C000F009C0F5
:1018100001F0640E046E000E056E84EC07F0300ECD
:101820000024796F640E046E000E056E55C400F03E
:1018300056C401F084EC07F008C000F009C001F0C4
:101840000A0E046E000E056E84EC07F0300E0024C4
:101850007A6F0A0E046E000E056E55C400F056C471
:1018600001F084EC07F008C000F009C001F0300E70
:0618700000247B6F120052
:101876000B6A0A6A096A086A0E6A03340836045053
:10188600085E0550D8A0053C095E0650D8A0063C67
:101896000A5E0750D8A0073C0B5EE86AD8A0010E86
:1018A6000E5E0336070E0C6E0334083609360A360A
:1018B6000B360E36045003A012D0085E0550D8A091
:1018C600053C095E0650D8A0063C0A5E0750D8A023
:1018D600073C0B5EE86AD8A0010E0E5E11D0082602
:1018E6000550D8B0053C09260650D8B0063C0A2655
:1018F6000750D8B0073C0B26E86AD8B0010E0E2672
:1019060003360C2ED1D70234083609360A360B3682
:101916000E36045003A012D0085E0550D8A0053C30
:10192600095E0650D8A0063C0A5E0750D8A0073CC0
:101936000B5EE86AD8A0010E0E5E11D0082605508F
:10194600D8B0053C09260650D8B0063C0A260750F2
:10195600D8B0073C0B26E86AD8B0010E0E26023630
:10196600070E0C6E0234083609360A360B360E366A
:10197600045002A012D0085E0550D8A0053C095EAE
:101986000650D8A0063C0A5E0750D8A0073C0B5E5E
:10199600E86AD8A0010E0E5E11D008260550D8B010
:1019A600053C09260650D8B0063C0A260750D8B092
:1019B600073C0B26E86AD8B0010E0E2602360C2E1E
:1019C600D1D70134083609360A360B360E3604509E
:1019D60002A012D0085E0550D8A0053C095E06504C
:1019E600D8A0063C0A5E0750D8A0073C0B5EE86A02
:1019F600D8A0010E0E5E11D008260550D8B0053CC1
:101A060009260650D8B0063C0A260750D8B0073C2F
:101A16000B26E86AD8B0010E0E260136070E0C6EAC
:101A26000134083609360A360B360E36045001A044
:101A360012D0085E0550D8A0053C095E0650D8A015
:101A4600063C0A5E0750D8A0073C0B5EE86AD8A0A1
:101A5600010E0E5E11D008260550D8B0053C0926A9
:101A66000650D8B0063C0A260750D8B0073C0B26CD
:101A7600E86AD8B0010E0E2601360C2ED1D70034F6
:101A8600083609360A360B360E36045001A012D037
:101A9600085E0550D8A0053C095E0650D8A0063C55
:101AA6000A5E0750D8A0073C0B5EE86AD8A0010E74
:101AB6000E5E11D008260550D8B0053C0926065002
:101AC600D8B0063C0A260750D8B0073C0B26E86A71
:101AD600D8B0010E0E260036070E0C6E00340836FE
:101AE60009360A360B360E36045000A012D0085EB0
:101AF6000550D8A0053C095E0650D8A0063C0A5EF3
:101B06000750D8A0073C0B5EE86AD8A0010E0E5E0F
:101B160011D008260550D8B0053C09260650D8B085
:101B2600063C0A260750D8B0073C0B26E86AD8B010
:101B3600010E0E2600360C2ED1D700B00ED0045062
:101B460008260550D8B0053C09260650D8B0063CF4
:0C1B56000A260750D8B0073C0B261200EE
:101B62000B6A0C6A0A6A086A0350D8B439EF0EF09D
:101B7200028E9E0E035E03BEC4EF0DF0D8B4C4EF16
:101B82000DF029EF0EF0036C080E035CD8A0F6EFFF
:101B92000DF0036E083600C008F001C000F002C06C
:101BA20001F0026A080E035CD8A0F6EF0DF0036E96
:101BB200083600C008F001C000F0016A080E035C9C
:101BC200D8A0F6EF0DF0036E083600C008F0006AE8
:101BD200080E035CD8A0F6EF0DF0036E0836086A13
:101BE2000350D8A4D89002EF0EF00350D8B402EFFD
:101BF2000EF0D8900232013200320832032EFAEF90
:101C02000DF00BBC08A013EF0EF0D8A013EF0EF0EE
:101C1200082AD8B4002AD8B4012AD8B4022A02BEAB
:101C22003DEF0EF00AAE39EF0EF0021E011E001E4D
:101C3200081E082AD8B4002AD8B4012AD8B4022A25
:101C420039EF0EF0026A016A006A086A39EF0EF093
:101C52000B800BAE43EF0EF0026A0AAE43EF0EF0BA
:101C6200026E016E006E086E0A36023243EF0EF00B
:101C7200000E0C6A44EF0EF0010E0C6E56EC06F0EC
:101C820044EF0EF0FF0E0250036E0150026E005040
:081C9200016E0850006E120003
:101C9A0010D0800E04014F6F1AD0C00E4F6F17D0AC
:101CAA00940E4F6F14D0D40E4F6F11D0800E4F6F19
:101CBA000ED004014F51010AECE04F51020AEDE047
:101CCA004F51030AEDE04F51040AEDE0EFD75005FA
:101CDA00006E4F51002600C04FF400C06AF41FEC9A
:101CEA0001F07F910401536B53515125E96E000EA7
:101CFA005221EA6EEE520DE053515125E96E000E63
:101D0A005221EA6EEECF62F4CDEC02F00401532BBD
:081D1A00EBD703017F811200E9
:101D22000B6A0C6A0A6A0350D8B4DBEF0EF0028E1B
:101D32008E0E035E03BEA3EF0EF0D8B4A3EF0EF037
:101D4200DFEF0EF0036C080E035CD8A0BAEF0EF0C2
:101D5200036E013602C001F0026A080E035CD8A0CD
:101D6200BAEF0EF00136016A0350D8A4D890C4EF3E
:101D72000EF00350D8B4C4EF0EF0D8900232013204
:101D8200032EBEEF0EF00BBC01A0D1EF0EF0D8A0D7
:101D9200D1EF0EF0012AD8B4022A02BEEEEF0EF005
:101DA2000AAEF4EF0EF0021E011E012AD8B4022A76
:101DB200F4EF0EF0026A016AF4EF0EF00B800BAE44
:101DC200F8EF0EF0026A0AAEF8EF0EF0FF0E026EA6
:101DD200016E0A360232F8EF0EF0010E0C6E56EC6E
:101DE20006F0FAEF0EF0000E0C6EFAEF0EF0FF0E98
:0C1DF2000C6E0150006E0250016E1200D9
:101DFE004FC404F050C405F004C002F005C003F057
:101E0E00044A052A51C400F052C401F00401514B9A
:101E1E00522B00C0E9FF01C0EAFF02C0E1FF03C080
:101E2E00E2FFEECFE6FF02C0E9FF03C0EAFFEE528B
:0E1E3E0001E0E2D74FC400F050C401F01200E2
:101E4C004FC462F450C463F406EC06F000504F2506
:101E5C00516F01505021526F010E515F000E525BB9
:101E6C0051C4E9FF52C4EAFFEE50200A07E1505179
:101E7C00525D02E14F51515D01E3EED7010E512548
:101E8C00E16E000E5221E26EE66A4FC400F050C4BF
:041E9C0001F012003F
:101EA0000401516B51514F25E96E000E5021EA6E2D
:101EB000EE520DE051514F25E96E000E5021EA6EB1
:101EC000EECF62F4CDEC02F00401512BEBD71200FF
:101ED000000E006E7D0E016E000E026E036E12008B
:101EE000C26A070EC012C08E4FC400F000360090C8
:101EF000003600900050C212C28023EC06F0C2826D
:101F0000C2A201D0FDD7C4CF01F0006AC3500012B5
:081F1000000E0112C290120044
:101F18000401536B050E535D0AE253515125E16EDE
:101F2800000E5221E26E200EE66E532BF3D753516A
:101F38005125E16E000E5221E26EE66A53075351B5
:101F48005125546F000E5221556F0A0E046E000E73
:101F5800056E4FC400F050C401F084EC07F008C0CF
:101F680000F009C001F0300E002654C4E1FF55C44A
:101F7800E2FF00C0E6FF0A0E046E000E056E4FC4B5
:101F880000F050C401F084EC07F000C04FF401C029
:101F980050F4000E011802E1000E001801E102D011
:061FA8005307CDD7120023
:101FAE006F0ED56E400ECD6EC00EF26E9E909D8061
:101FBE00D66AD58E290E0B6E960E0C6E7F0E0D6E9A
:101FCE000D2EFED70C2EFCD70B2EFAD7D59E010E5A
:101FDE0004016A6F1FEC01F0020E04014F6F010E37
:101FEE00506F160E516F010E526F50DED6CFD4F3D6
:101FFE00D4C34FF4DD0E0401506F030E516FB4ECD9
:10200E0009F0DD0E4F6F030E506F00EC0AF000C0AA
:10201E004FF401C050F413DF00C04FF401C050F470
:10202E0038DF190E4F6F010E506F33DFD66AC70EB1
:10203E00D56EF28EF28A8B820301EC6BED6BEE6B3A
:10204E00EF6BD56BD66BD76BD86B0401016B026B44
:10205E00036B046B056B066B0301FC6BFD6BFE6B78
:10206E00FF6BCF6ACE6AF46BF56BF66BF76BCD80B8
:10207E00000E006EF71908E10050F61905E1005048
:10208E00F51902E1F4510A0A53E004014F6B21DF06
:10209E00F7EC06F0310E046E080E056E2C0E066E71
:1020AE007D0E076E64EC06F000C0F8F301C0F9F384
:1020BE0002C0FAF303C0FBF341EC09F000C03BF49D
:1020CE0001C03CF402C03DF403C03EF43BC403F433
:1020DE003CC404F43DC405F43EC406F401C400F04F
:1020EE0002C401F0F7EC06F03BC404F03CC405F06A
:1020FE003DC406F03EC407F064EC06F0D5C304F010
:10210E00D6C305F0D7C306F0D8C307F0D4EC02F05F
:10211E0000C0D5F301C0D6F302C0D7F303C0D8F385
:10212E00010E0301FC27000EFD23FE23FF23A0D783
:10213E00CD90FCC300F0FDC301F0FEC302F0FFC35F
:10214E0003F09FEC07F000C004F001C005F002C0E0
:10215E0006F003C007F0D5C300F0D6C301F0D7C315
:10216E0002F0D8C303F048EC05F000C0D5F301C06F
:10217E00D6F302C0D7F303C0D8F3000E046E000EE0
:10218E00056E340E066E890E076E64EC06F0E2DC08
:10219E0000C0ECF301C0EDF302C0EEF303C0EFF3A9
:1021AE00000E035C08E1000E025C05E1030E015C0B
:1021BE0002E1E90E005C18E2ECC300F0EDC301F0A1
:1021CE00EEC302F0EFC303F00A0E046E000E056EAE
:1021DE00066E076EB2EC07F000C0ECF301C0EDF333
:1021EE0002C0EEF303C0EFF3000E0301EF5D08E152
:1021FE00000EEE5D05E1070EED5D02E1D10EEC5D28
:10220E0018E2ECC300F0EDC301F0EEC302F0EFC331
:10221E0003F0140E046E000E056E066E076EB2EC21
:10222E0007F000C0ECF301C0EDF302C0EEF303C003
:10223E00EFF3000EEF5D08E1000EEE5D05E10F0E0F
:10224E00ED5D02E1A10EEC5D18E2ECC300F0EDC312
:10225E0001F0EEC302F0EFC303F01E0E046E000E8B
:10226E00056E066E076EB2EC07F000C0ECF301C00F
:10227E00EDF302C0EEF303C0EFF3EF51000808E1F7
:10228E00EE51000805E1ED510F0802E1EC51A108F5
:10229E0018E2ECC300F0EDC301F0EEC302F0EFC3A1
:1022AE0003F0320E046E000E056E066E076EB2EC73
:1022BE0007F000C0ECF301C0EDF302C0EEF303C073
:1022CE00EFF30401016B026B0301F06BF16BF26B28
:1022DE00F36BFC6BFD6BFE6BFF6BCF6ACE6AF46B20
:1022EE00F56BF66BF76BCD80000E006EF71908E1FB
:1022FE000050F61905E10050F51902E1F4510A0AF1
:10230E0029E004014F6BE5DDF7EC06F0310E046EAB
:10231E00080E056E2C0E066E7D0E076E64EC06F032
:10232E00F9DC00C014F101C015F100C004F001C0C9
:10233E0005F019EC07F000500301F0270150F123CE
:10234E00000EF223F323010EFC27000EFD23FE23C5
:10235E00FF23CAD7CD90F0C300F0F1C301F0F2C352
:10236E0002F0F3C303F00036009001360236033656
:10237E00FCC304F0FDC305F0FEC306F0FFC307F077
:10238E003BEC0CF09FEC07F000C04FF401C050F492
:10239E0002C051F403C052F438EC0AF0BBDC00C0AA
:1023AE0001F401C002F40101836B846B856B866BB3
:1023BE000301FC6BFD6BFE6BFF6B0401036B046B87
:1023CE00056B066BCF6ACE6A0301F46BF56BF66B89
:1023DE00F76BCD80000E006EF71908E10050F6196C
:1023EE0005E10050F51902E1F4510A0A2EE041EC24
:1023FE0009F000C003F401C004F402C005F403C0E8
:10240E0006F400C004F001C005F002C006F003C0DF
:10241E0007F064EC06F083C104F084C105F085C1B9
:10242E0006F086C107F0D4EC02F000C083F101C0C3
:10243E0084F102C085F103C086F1010E0301FC2771
:10244E00000EFD23FE23FF23C5D7CD90FCC300F065
:10245E00FDC301F0FEC302F0FFC303F09FEC07F0D3
:10246E0000C004F001C005F002C006F003C007F082
:10247E0083C100F084C101F085C102F086C103F072
:10248E0048EC05F000C04FF401C050F402C051F406
:10249E0003C052F438EC0AF000C03BF401C03CF427
:1024AE0002C03DF403C03EF43BC4D9F33CC4DAF39E
:1024BE003DC4DBF33EC4DCF301C400F002C401F002
:1024CE00F7EC06F03BC404F03CC405F03DC406F046
:1024DE003EC407F064EC06F000C004F001C005F045
:1024EE0002C006F003C007F0D5C300F0D6C301F05A
:1024FE00D7C302F0D8C303F048EC05F000C07FF15B
:10250E0001C080F102C081F103C082F1010E04010D
:10251E004F6F010E506F960E516F000E526F4DECB5
:10252E000EF001C44FF402C450F4DD0E0401516FDD
:10253E00030E526FEADC010E4F6F010E506F930EB9
:10254E00516F000E526F4DEC0EF0DD0E04014F6F09
:10255E00030E506F00EC0AF000C04FF401C050F4AF
:10256E006EDC00C04FF401C050F493DCD9C300F010
:10257E00DAC301F0DBC302F0DCC303F0000E046E1D
:10258E00000E056E7A0E066E880E076E64EC06F06F
:10259E00B1EC0DF000C04FF401C050F402C051F484
:1025AE0003C052F4A8EC0BF0010E04014F6F080E9D
:1025BE00506F7F0E516F000E526F4DEC0EF0750E78
:1025CE0004014F6F010E506F00EC0AF000C04FF483
:1025DE0001C050F434DC00C04FF401C050F459DC9B
:1025EE00020E4F6F080E506F870E516F000E526F16
:1025FE004DEC0EF0020E04014F6F080E506F820E5E
:10260E00516F000E526F4DEC0EF07FC100F080C185
:10261E0001F081C102F082C103F0000E046E000EC3
:10262E00056E7A0E066E880E076E64EC06F091EC5F
:10263E000EF000C04FF401C050F445EC0BF0870EC5
:0C264E0004014F6F010E506F24DC1200DD
:10265A003BC43DF43CC43EF43DC4E9FF3EC4EAFF3A
:10266A00EE50000A0CE03DC4E9FF3EC4EAFFEECF9B
:10267A0062F40CEC07F004013D4B3E2BEDD712003F
:10268A000401406B01011D510301822504013C6FC5
:10269A0001011E510301832104013D6F01011F51F4
:1026AA000301842104013E6F0101205103018521A8
:1026BA0004013F6F04013F510301855D0EE10401EE
:1026CA003E510301845D09E104013D510301835D2B
:1026DA0004E104013C510301825D04E3640E040138
:1026EA003B6F60D048EC07F00050000A5AE041EC1A
:1026FA0007F000C041F404014051000AFF0ED8A4BB
:10270A00000E026E0050550AFF0ED8A4000E016E8C
:10271A0001500214036E4051010AFF0ED8A4000EA4
:10272A00026E0050AA0AFF0ED8A4000E016E0250D3
:10273A000116015003124051020AFF0ED8A4000EDE
:10274A00026E0050000AFF0ED8A4000E016E02505D
:10275A000116015003124051030AFF0ED8A4000EBD
:10276A00026E0050800AFF0ED8A4000E016E0150BE
:10277A000214006E0350001202E0402B9BD7405116
:10278A00030806E3406B4151550AD8B4402B92D74F
:10279A004051060A02E13B6B05D040510308D8A01C
:0A27AA00402B88D73BC400F012005A
:1027B4000B0E0C6E620E0D6E0D2EFED70C2EFCD77A
:0427C40000001200FF
:1027C8003FC401F040C402F0010E04013F5F000E57
:1027D800405B000E021802E1000E01181FE03BC426
:1027E800E9FF3CC4EAFF3DC4D9FF3EC4DAFFEE501E
:1027F800DE180FE03BC4E9FF3CC4EAFF3DC4D9FF43
:102808003EC4DAFFDE50EE5C006E016A000E015A2B
:1028180007D03B4B3C2B3D4B3E2BD2D7006A016A7D
:0228280012009C
:10282A0004014D6B4E6B496B4A6BFF0E4B6FFF0EEB
:10283A004C6F550E626F0CEC07F0AA0E0401626F22
:10284A000CEC07F0750E0401626F0CEC07F0040142
:10285A00626B0CEC07F0040E0401626F0CEC07F0DB
:10286A000401626B0CEC07F03BC4E9FF3CC4EAFFCD
:10287A00EECF62F40CEC07F00401626B0CEC07F08B
:10288A003DC462F40CEC07F03EC462F40CEC07F0B1
:10289A00450E0401626F0CEC07F001011D510301A2
:1028AA0082250401446F01011E51030183210401A1
:1028BA00456F01011F51030184210401466F010183
:1028CA002051030185210401476F04014751030187
:1028DA00855D0EE1040146510301845D09E10401AD
:1028EA0045510301835D04E1040144510301825D02
:1028FA0004E3640E0401436F1DD148EC07F0005253
:10290A00D8B417D141EC07F000C048F4000E040116
:10291A004E1902E1000E4D19FF0ED8A4000E026EE8
:10292A000050550AFF0ED8A4000E016E0150021481
:10293A00036E000E4E1902E1010E4D19FF0ED8A4C6
:10294A00000E026E0050AA0AFF0ED8A4000E016EF5
:10295A000250011601500312000E4E1902E1020E36
:10296A004D19FF0ED8A4000E026E00501D0AFF0E6C
:10297A00D8A4000E016E0250011601500312000E77
:10298A004E1902E1030E4D19FF0ED8A4000E026E75
:10299A000050000AFF0ED8A4000E016E0150021466
:1029AA00006E0350001203E04D4B4E2B8ED7000EE3
:1029BA00006E4E51005C02E14D5103081FE3000E08
:1029CA004E1902E1020E4D19FF0ED8A4000E016E37
:1029DA004851010AFF0ED8A4000E006E01500016DD
:1029EA0005E0010E4A6F4D4B4E2B07D04D6B4E6BD7
:1029FA004851550A02E14D4B4E2B67D74A51010AFD
:102A0A00FF0ED8A4000E016E000E4E1902E1060E4A
:102A1A004D19FF0ED8A4000E006E00500116485141
:102A2A00FF0AFF0ED8A4000E006E0150001603E044
:102A3A00010E496F74D04951010AFF0ED8A4000E45
:102A4A00016E000E4E1902E1080E4D19FF0ED8A4B0
:102A5A00000E006E0150001603E048C443F46AD029
:102A6A00000E4E1902E1060E4D1907E13BC4E1FFC3
:102A7A003CC4E2FF48C4E6FF52D0000E4E1902E100
:102A8A00080E4D1903E148C44BF449D0000E4E1903
:102A9A0002E1090E4D1903E148C44CF440D0000E7E
:102AAA004E5D02E10A0E4D5D000ED8B0FF0E036EB8
:102ABA00090E4B25016E000E4C21026E4E51025C2E
:102ACA0002E14D51015C000ED8B0FF0E006E0350BA
:102ADA0000160FE04D513F25006E4E514021016E08
:102AEA000A0E005CE16E000E0158E26E48C4E6FF71
:102AFA0016D00A0E4B25016E000E4C21026E4E5165
:102B0A00021802E101504D190AE141C4E1FF42C431
:102B1A00E2FF4BC4E6FF4CC4E6FF436B0BD0000E4A
:102B2A00006E4E51005C02E14D51030802E24D4B2A
:0A2B3A004E2BCBD643C400F012006E
:102B440010D0800E04013B6F1AD0C00E3B6F17D01B
:102B5400940E3B6F14D0D40E3B6F11D0800E3B6F9C
:102B64000ED004013B51010AECE03B51020AEDE0B6
:102B74003B51030AEDE03B51040AEDE0EFD73C057D
:102B8400006E3B51002600C03BF403017F8100C06E
:102B94006AF41FEC01F07F913DC46AF41FEC01F06C
:042BA4007F8112001B
:102BA800010E04013B15006E00B002D08C9401D0D8
:102BB8008C84020E3B15026E02C000F00032009EAB
:102BC80000B002D08C9601D08C86040E3B15026EA4
:102BD80002C000F00032009E0032009E00B002D019
:102BE8008C9801D08C88080E3B15026E02C000F04C
:102BF8000032009E0032009E0032009E00B002D0DB
:102C08008C9A01D08C8A100E3B15026E02C000F01F
:102C18000032009E0032009E0032009E0032009E6C
:102C280000B002D08C9C01D08C8C200E3B15026E1B
:102C3800050E016E02C000F0015004E00032009E53
:102C4800FF0FFBD700B002D08C9E01D08C8E400EB7
:102C58003B15026E060E016E02C000F0015004E042
:102C68000032009EFF0FFBD700B002D08B9601D038
:102C78008B86800E3B15026E070E016E02C000F0B7
:102C8800015004E00032009EFF0FFBD700B002D0D5
:082C98008B9401D08B84120023
:102CA0003BC4E9FF3CC4EAFFEE522EE0960E000161
:102CB000B825E16E010EB921E26E3BC4E9FF3CC4C8
:102CC000EAFFEECFE6FFB84BB92B04013B4B3C2BA0
:102CD0000001B951010A02E1E90EB81914E192C1EB
:102CE0004FF4960E0401506F010E516FE90E526FB2
:102CF000010E536F3D0E546F040E556FDBEC07F061
:102D00000001B86BB96BCCD7B8C000F0B9C001F006
:022D10001200AF
:102D12003BC4F6FF3CC4F7FF3DC4F8FF0900F5CF02
:102D220000F0005236E0960E0001B825E16E010E69
:102D3200B921E26E3BC4F6FF3CC4F7FF3DC4F8FF85
:102D42000900F5CF00F000C0E6FFB84BB92B010E29
:102D520004013B27000E3C233D230001B951010A27
:102D620002E1E90EB81914E192C14FF4960E040182
:102D7200506F010E516FE90E526F010E536F3E0EEE
:102D8200546F040E556FDBEC07F00001B86BB96BA2
:0C2D9200BFD7B8C000F0B9C001F01200BB
:102D9E000401476B486B3BC443F43CC444F43DC44C
:102DAE0045F43EC446F44651FF0A08E14551FF0A78
:102DBE0005E14451FF0A02E14351FF0A0DE13FC410
:102DCE004FF440C450F4E10E516F000E526FFFEC01
:102DDE000EF0030E006EEDD1010E416F45AF0ED019
:102DEE00800E4519006E00C045F4412B3FC4E1FF33
:102DFE0040C4E2FF2D0EE66E3F4B402B000E006EE0
:102E0E00461908E10050451905E10050441902E148
:102E1E004351000A0CE13FC44FF440C450F4DF0E9E
:102E2E00516F000E526FFFEC0EF0006AC2D1465188
:102E3E00FF0A08E14551000A05E14451000A02E18A
:102E4E004351000A0DE13FC44FF440C450F4BA0E92
:102E5E00516F000E526FFFEC0EF041C400F0A9D17D
:102E6E00000E046E000E056E000E066E7F0E076ECF
:102E7E0043C400F044C401F045C402F046C403F05C
:102E8E00B8EC00F0010ED8B0000E006E00521CE03F
:102E9E0043C400F044C401F045C402F046C403F03C
:102EAE00000E046E000E056E200E066E820E076E6C
:102EBE0064EC06F000C043F401C044F402C045F4D3
:102ECE0003C046F44807CCD7000E046E000E056E04
:102EDE00200E066E820E076E43C400F044C401F04D
:102EEE0045C402F046C403F0B8EC00F0000ED8B0B2
:102EFE00010E006E00521CE043C400F044C401F009
:102F0E0045C402F046C403F0CD0E046ECC0E056E21
:102F1E004C0E066E7B0E076E64EC06F000C043F49A
:102F2E0001C044F402C045F403C046F4482BCCD78C
:102F3E00FF0E4315086EFF0E4415096E7F0E4515E4
:102F4E000A6E000E46150B6E08C004F009C005F09F
:102F5E000AC006F00BC007F004360490053606369C
:102F6E000736000E4315006E000E4415016E000E5E
:102F7E004515026EFF0E4615036E00C043F401C0E8
:102F8E0044F402C045F403C046F404504311006EED
:102F9E0005504411016E06504511026E0750461140
:102FAE00036E00C043F401C044F402C045F403C0F4
:102FBE0046F47F0E465D006E00C042F4010E466F71
:102FCE0000C004F043C400F044C401F045C402F054
:102FDE0046C403F0045007E0003600900136023676
:102FEE000336FF0FF8D700C043F401C044F402C00B
:102FFE0045F403C046F43FC4E1FF40C4E2FF46512E
:10300E00300FE66E3F4B402B800E4819006E800E3F
:10301E00010A005C08E3800E060A006E800E481955
:10302E00005C01E30AD03FC4E1FF40C4E2FF2E0E74
:10303E00E66E3F4B402B010E476F060E426F42511C
:10304E00000A54E0466B43C400F044C401F045C48A
:10305E0002F046C403F00036009001360236033605
:10306E000036009001360236033643510026445195
:10307E000122455102224651032200C043F401C0F1
:10308E0044F402C045F403C046F443C400F044C403
:10309E0001F045C402F046C403F00036009001363C
:1030AE000236033600C043F401C044F402C045F4B6
:1030BE0003C046F43FC4E1FF40C4E2FF4651300F67
:1030CE00E66E3F4B402B4751000A0EE14807485130
:1030DE00000A0AE13FC4E1FF40C4E2FF2E0EE66E95
:1030EE003F4B402B010E476F4207A9D7FF0E3F25DE
:1030FE00E96EFF0E4021EA6EEE50300A05E1010E38
:10310E003F5F000E405BF2D7FF0E3F25E96EFF0ECC
:10311E004021EA6EEE502E0A04E1010E3F5F000ED2
:10312E00405B4851000A3FE03FC4E1FF40C4E2FF6C
:10313E00650EE66E3F4B402B800E4819006E800EDA
:10314E00000A005C0BE23FC4E1FF40C4E2FF2D0E1B
:10315E00E66E3F4B402B48510008486F48C442F47E
:10316E00485109080FE20A0E046E42C400F047EC03
:10317E0006F03FC4E1FF40C4E2FF0050300FE66EA0
:10318E003F4B402B0A0E046E42C400F047EC06F093
:10319E0008C000F03FC4E1FF40C4E2FF0050300F12
:1031AE00E66E3F4B402B3FC4E1FF40C4E2FFE66AB0
:0431BE00006A120091
:1031C2000401416B426B000E425D02E10A0E415D59
:1031D2000BE241513F25E16E42514021E26E200E49
:1031E200E66E414B422BEFD741513F25E16E4251F2
:1031F2004021E26EE66A010E415F000E425B4151E0
:103202003F25436F42514021446F0A0E046E000E67
:10321200056E066E076E3BC400F03CC401F03DC46F
:1032220002F03EC403F03BEC0CF008C000F009C011
:1032320001F00AC002F00BC003F0300E002643C4B6
:10324200E1FF44C4E2FF00C0E6FF0A0E046E000E76
:10325200056E066E076E3BC400F03CC401F03DC42F
:1032620002F03EC403F03BEC0CF000C03BF401C0A2
:103272003CF402C03DF403C03EF4000E046E031899
:1032820008E10450021805E10450011802E100505F
:10329200000A01E105D0010E415F000E425BAFD78B
:0232A200120018
:1032A400A69C3BC4A9FFA69EA680A8CF00F012004E
:1032B40068EC0FF0E80E046E030E056E000E066E49
:1032C400076EB2EC07F000C043F401C044F402C03E
:1032D40045F403C046F43BC404F03CC405F0000EBE
:1032E400066E076E3BEC0CF000C043F401C044F4DE
:1032F40002C045F403C046F400C005F001C006F066
:1033040002C007F003C008F0083207320632053263
:10331400089E0832073206320532089E05C000F0C6
:1033240006C001F007C002F008C003F00332023205
:1033340001320032039E00C03FF401C040F468EC47
:103344000FF03DC404F03EC405F0000E066E076E97
:10335400B2EC07F03FC409F040C40AF0000E0B6E53
:103364000C6E030E086E09C004F00AC005F00BC011
:1033740006F00CC007F0085007E004360490053648
:1033840006360736FF0FF8D73BEC0CF000C043F4C9
:1033940001C044F402C045F403C046F40A0E046EAE
:1033A400000E056E3FC400F040C401F084EC07F049
:1033B40000C03FF401C040F4000E015C02E1030EC2
:1033C400005C01E24BD080C3E9FF81C3EAFF040142
:1033D4004651000808E14551000805E14451000840
:1033E40002E14351000837E203018651EF12040160
:1033F40040530EE0416B426B000E425D02E14051CE
:10340400415D06E24F6BEEEC09F0414B422BF4D7E1
:103414003FC44FF4EEEC09F003019751EF16040199
:1034240040530EE0416B426B000E425D02E140519D
:10343400415D06E24F6BEEEC09F0414B422BF4D7B1
:103444003FC44FF4EEEC09F0010E435F000E445B01
:0E345400455B465BBCD703019751EF16120093
:1034620004013B51390806E3300E3B5D03E3010ED4
:08347200006E01D0006A120097
:10347A00A6A202D00000FCD7A69C3BC4A9FF3CC46C
:10348A00A8FFA69EA684F2CF00F0F29E550EA76E64
:10349A00AA0EA76EA68200BE02D0F29E01D0F28EBC
:0434AA00A6941200D2
:1034AE0004012D6B550E626F0CEC07F0AA0E040191
:1034BE00626F0CEC07F02C0E0401626F0CEC07F03F
:1034CE000401626B0CEC07F0100E0401626F0CEC41
:1034DE0007F00401626B0CEC07F004012D6B040E77
:1034EE002D5D0BE22D512A25E96E000E2B21EA6E81
:1034FE00EECF62F40CEC07F004D00401626B0CEC1E
:10350E0007F004012D510F0A02E02D2BE8D7450ECE
:10351E00626F0CEC07F045EC13F000C02CF42CC4D9
:04352E0000F0120097
:1035320004012D6B550E626F0CEC07F0AA0E04010C
:10354200626F0CEC07F02A0E0401626F0CEC07F0BC
:103552000401626B0CEC07F0100E0401626F0CECBC
:1035620007F00401626B0CEC07F004012D6B040EF2
:103572002D5D0BE22D512A25E96E000E2B21EA6EFC
:10358200EECF62F40CEC07F004D00401626B0CEC99
:1035920007F004012D510F0A02E02D2BE8D7450E4A
:1035A200626F0CEC07F045EC13F000C02CF42CC455
:0435B20000F0120013
:1035B6006C9A540E0301936F030E946F6A0E956F07
:1035C600040E966F280E9C6F010E9D6F6B0E9E6FFC
:1035D600040E9F6F9598959095826C6A04012A5106
:1035E6006C122C516C122B516D122C5305E02D517F
:1035F600000AD8B46D8C03D02D53D8A46D8C6C8A78
:023606001200B0
:10360800550E0401626F0CEC07F0AA0E0401626FFC
:103618000CEC07F03B0E0401626F0CEC07F00401A0
:10362800626B0CEC07F0020E0401626F0CEC07F001
:103638000401626B0CEC07F02AC462F40CEC07F08E
:103648002BC462F40CEC07F0450E0401626F0CEC1D
:1036580007F045EC13F000C02CF42CC400F0120065
:1036680004012D6B550E626F0CEC07F0AA0E0401D5
:10367800626F0CEC07F0290E0401626F0CEC07F086
:103688000401626B0CEC07F0120E0401626F0CEC83
:1036980007F00401626B0CEC07F00401626B0CECA0
:1036A80007F0010E0401626F0CEC07F004012D6BAA
:1036B800040E2D5D0BE22D512A25E96E000E2B21FB
:1036C800EA6EEECF62F40CEC07F004D00401626BF2
:1036D8000CEC07F004012D510F0A02E02D2BE8D75E
:1036E800450E626F0CEC07F045EC13F000C02CF4AB
:0636F8002CC400F01200DA
:1036FE0004012D6B550E626F0CEC07F0AA0E04013F
:10370E00626F0CEC07F0310E0401626F0CEC07F0E7
:10371E000401626B0CEC07F0060E0401626F0CECF8
:10372E0007F00401626B0CEC07F004012D6B2D51B8
:10373E002A25E96E000E2B21EA6EEECF62F40CEC18
:10374E0007F004012D51050A02E02D2BF0D7450E8E
:10375E00626F0CEC07F045EC13F000C02CF42CC497
:04376E0000F0120055
:10377200550E0401626F0CEC07F0AA0E0401626F91
:103782000CEC07F0AD0E0401626F0CEC07F00401C3
:10379200626B0CEC07F0020E0401626F0CEC07F096
:1037A2000401626B0CEC07F02AC462F40CEC07F023
:1037B2002BC462F40CEC07F0450E0401626F0CECB2
:1037C20007F045EC13F000C02CF42CC400F01200FA
:1037D20096908D90DAEC13F08D800301826B836BEF
:0637E200846B856B1200F0
:1037E8002AC480F32BC481F32CC401F0010E006EAF
:1037F800015004E000360090FF0FFBD700C086F3AD
:10380800001E00C097F3120E04012A25E96E000E6F
:103818002B21EA6E0050EF16120EE95E0050EF16EB
:0238280012008C
:10382A00939A939893909392939493968A9A8A9858
:10383A008A968A948A928A90A2EC00F0A2EC00F00E
:10384A00A2EC00F08A828A808A8AABEC00F08A9A1B
:10385A00A2EC00F08A8AABEC00F08A9AA2EC00F0A3
:10386A008A8AABEC00F08A9AA2EC00F08A908A8AE3
:10387A00ABEC00F08A9AA2EC00F08A8AABEC00F07A
:10388A008A9A8A928A868A8AABEC00F08A9AA2EC91
:10389A0000F08A968A808A8AABEC00F08A9A8A902B
:1038AA008A8AABEC00F08A9AA2EC00F08A8AABEC26
:1038BA0000F08A9A8A808A8AABEC00F08A9AA2EC93
:1038CA0000F08A908A8AABEC00F08A9A8A868A8407
:1038DA008A828A808A8AABEC00F08A9AA2EC00F08B
:0638EA0003017F811200C2
:1038F000550E0401626F0CEC07F0AA0E0401626F12
:103900000CEC07F0370E0401626F0CEC07F00401B9
:10391000626B0CEC07F0020E0401626F0CEC07F016
:103920000401626B0CEC07F02AC462F40CEC07F0A3
:103930002BC462F40CEC07F0450E0401626F0CEC32
:1039400007F045EC13F000C02CF42CC400F012007A
:1039500004012E6B2F6B2BC430F42CC431F430C413
:10396000E9FF31C4EAFFEE50000A05E02E4B2F2B91
:10397000304B312BF4D7000E006E2F51005C02E16A
:103980002E51200803E2010E2D6F33D0550E626FC9
:103990000CEC07F0AA0E0401626F0CEC07F0390E74
:1039A0000401626F0CEC07F00401626B0CEC07F091
:1039B000020E04012E25626F0CEC07F00401626B0D
:1039C0000CEC07F02AC462F40CEC07F02EC462F48D
:1039D0000CEC07F02BC43BF42CC43CF42DEC13F09E
:1039E000450E0401626F0CEC07F045EC13F000C0CB
:0839F0002DF42DC400F01200BB
:1039F8000401316B326B2F6B306B2CC433F42DC444
:103A080034F433C4E9FF34C4EAFFEE50000A05E099
:103A18002F4B302B334B342BF4D7550E626F0CECF5
:103A280007F0AA0E0401626F0CEC07F0440E0401C3
:103A3800626F0CEC07F00401626B0CEC07F0040EEB
:103A480004012F25006E000E3021016E00C02FF4F6
:103A580001C030F400C062F40CEC07F00401626BA2
:103A68000CEC07F02AC462F40CEC07F02BC462F4E7
:103A78000CEC07F00401626B0CEC07F0040E040177
:103A88002F5D006E000E3059016E00C02FF401C08A
:103A980030F400C062F40CEC07F00401316B326BB7
:103AA800010E2F5D356F000E3059366F3251365D7D
:103AB80002E13151355D14E331512C25E96E325163
:103AC8002D21EA6EEECF62F40CEC07F004013251BE
:103AD800361902E13551311903E0314B322BE0D769
:103AE800450E626F0CEC07F045EC13F000C02EF4A5
:063AF8002EC400F01200D4
:103AFE00550E0401626F0CEC07F0AA0E0401626F02
:103B0E000CEC07F03A0E0401626F0CEC07F00401A6
:103B1E00626B0CEC07F0020E04012A25626F0CECAE
:103B2E0007F00401626B0CEC07F02AC462F40CEC93
:103B3E0007F00401626B0CEC07F004012E6B2A05F2
:103B4E002F6F2E512F5D10E32E512B25E96E000E97
:103B5E002C21EA6EEECF62F40CEC07F004012E512C
:103B6E002F1902E02E2BEBD7450E626F0CEC07F0EF
:0E3B7E0045EC13F000C02DF42DC400F0120031
:103B8C000401326B550E626F0CEC07F0AA0E0401A7
:103B9C00626F0CEC07F06E0E0401626F0CEC07F018
:103BAC000401626B0CEC07F0020E0401626F0CEC6A
:103BBC0007F00401626B0CEC07F02CC462F40CEC03
:103BCC0007F00401626B0CEC07F0450E0401626F08
:103BDC000CEC07F001011D510301822504012E6F2D
:103BEC0001011E510301832104012F6F01011F519B
:103BFC00030184210401306F01012051030185214F
:103C0C000401316F040131510301855D0EE10401A2
:103C1C0030510301845D09E104012F510301835DDF
:103C2C0004E104012E510301825D04E3640E0401DE
:103C3C002D6F87D048EC07F00052D8B481D041ECFE
:103C4C0007F000C033F404013251000AFF0ED8A46F
:103C5C00000E026E0050550AFF0ED8A4000E016E25
:103C6C0001500214036E3251010AFF0ED8A4000E4B
:103C7C00026E0050AA0AFF0ED8A4000E016E02506C
:103C8C000116015003123251020AFF0ED8A4000E85
:103C9C00026E0050170AFF0ED8A4000E016E0250DF
:103CAC00011601500310026E3251030AFF0ED8A404
:103CBC00000E016E0050000AFF0ED8A4000E046E18
:103CCC000450011601500210036E3251040AFF0E0B
:103CDC00D8A4000E026E0050020AFF0ED8A4000EEB
:103CEC00016E01500214006E00500310016E32512F
:103CFC00050AFF0ED8A4000E006E045000160150E9
:103D0C00001202E0322B7ED73251050806E3326BEB
:103D1C003351550AD8B4322B75D73251060A07E104
:103D2C002AC4E1FF2BC4E2FF33C4E6FF05D03251B5
:103D3C00080A02E12D6B05D032510508D8A0322BB0
:083D4C0061D72DC400F0120044
:103D54000401346B550E626F0CEC07F0AA0E0401DB
:103D6400626F0CEC07F0700E0401626F0CEC07F04C
:103D74000401626B0CEC07F0040E0401626F0CEC9E
:103D840007F00401626B0CEC07F02BC4E9FF2CC4B0
:103D9400EAFFEECF62F40CEC07F0010E04012B25D0
:103DA400E96E000E2C21EA6EEECF62F40CEC07F003
:103DB4002AC462F40CEC07F00401626B0CEC07F00B
:103DC400450E0401626F0CEC07F001011D51030163
:103DD40082250401306F01011E5103018321040176
:103DE400316F01011F51030184210401326F01016C
:103DF4002051030185210401336F04013351030170
:103E0400855D0EE1040132510301845D09E1040181
:103E140031510301835D04E1040130510301825DEA
:103E240004E3640E04012F6F9DD048EC07F00052A8
:103E3400D8B497D041EC07F000C035F404013451F4
:103E4400000AFF0ED8A4000E026E0050550AFF0EA1
:103E5400D8A4000E016E01500214036E3451010AFD
:103E6400FF0ED8A4000E026E0050AA0AFF0ED8A4BA
:103E7400000E016E02500116015003123451020A61
:103E8400FF0ED8A4000E026E0050180AFF0ED8A42C
:103E9400000E016E0250011601500310026E3451DF
:103EA400030AFF0ED8A4000E016E0050000AFF0E94
:103EB400D8A4000E046E0450011601500210036EC3
:103EC4003451040AFF0ED8A4000E026E0050040AF6
:103ED400FF0ED8A4000E016E01500214006E0050B3
:103EE4000310016E3451050AFF0ED8A4000E006EB3
:103EF400045000160150001202E0342B7ED73451D6
:103F0400050806E3346B3551550AD8B4342B75D7FC
:103F14003451060A07E12BC4E1FF2CC4E2FF35C487
:103F2400E6FF1BD03451070A09E1010E2B25E16E8F
:103F3400000E2C21E26E35C4E6FF0FD03451080A7E
:103F440007E12DC4E1FF2EC4E2FF35C4E6FF05D02E
:103F540034510A0A02E12F6B05D034510508D8A068
:0A3F6400342B4BD72FC400F01200DD
:103F6E0004012F6B290E316F010E326F01011D51AD
:103F7E000301822504012B6F01011E5103018321D0
:103F8E0004012C6F01011F510301842104012D6FC7
:103F9E00010120510301852104012E6F550E626F20
:103FAE000CEC07F0AA0E0401626F0CEC07F0300E59
:103FBE000401626F0CEC07F00401626B0CEC07F06D
:103FCE000401626B0CEC07F00401626B0CEC07F061
:103FDE00450E0401626F0CEC07F004012E51030133
:103FEE00855D0EE104012D510301845D09E104019B
:103FFE002C510301835D04E104012B510301825D09
:10400E0004E3640E04012A6FB1D048EC07F00052AD
:10401E00D8B4ABD041EC07F000C030F404012F51FE
:10402E00000AFF0ED8A4000E026E0050550AFF0EB5
:10403E00D8A4000E016E01500214036E2F51010A16
:10404E00FF0ED8A4000E026E0050AA0AFF0ED8A4CE
:10405E00000E016E02500116015003122F51020A7A
:10406E00FF0ED8A4000E026E0050300AFF0ED8A428
:10407E00000E016E02500116015003122F51030A59
:10408E00FF0ED8A4000E026E0050000AFF0ED8A438
:10409E00000E016E01500214006E0350001202E079
:1040AE002F2B9BD72F51030806E32F6B3051550A48
:1040BE00D8B42F2B92D7070E2F5D000ED8B0FF0E5F
:1040CE00016E2F510C08000ED8B0FF0E006E00507E
:1040DE000114026E0D0E2F5D000ED8B0FF0E016E94
:1040EE002F511008000ED8B0FF0E006E01500016B2
:1040FE00005002121D0E2F5D000ED8B0FF0E016E85
:10410E002F512008000ED8B0FF0E006E0150001681
:10411E00005002122D0E2F5D000ED8B0FF0E016E54
:10412E002F513008000ED8B0FF0E006E0150001651
:10413E0000500210016E2F513D0AFF0ED8A4000E42
:10414E00006E0150001208E031C4E1FF32C4E2FFFC
:10415E0030C4E6FF314B322B2F513E0A02E12A6B5F
:10416E0005D02F510308D8A02F2B37D72AC400F023
:02417E0012002D
:104180003B50040A09E1210E04012B6F6A0E2C6FCB
:10419000000E2D6F3B6A22D018D00401110E2B6F38
:1041A0006A0E2C6F000E2D6F19D00401090E2B6FB3
:1041B0006A0E2C6F000E2D6F11D00401190E2B6F9B
:1041C0006A0E2C6F000E2D6F09D03B50010AE5E0FE
:1041D0003B50020AEAE03B50030AEFE004013B2AAD
:1041E000400E6A6F1FEC01F004012A6B2A51070888
:1041F00011E32A512B25F66E000E2C21F76E000ECE
:104200002D21F86E0900F5CF62F4CDEC02F0040127
:104210002A2BECD7020E6A6F1FEC01F0020E04018C
:0E4220003B6F100E3C6F3D6BA2EC15F01200D0
:10422E0004012E6B2F6B2C6B2D6B920E3B6F010EC0
:10423E003C6F0A0E3D6F000E3E6FA00E3F6F030ED9
:10424E00406F2E0E416F040E426F15EC14F00301F9
:10425E00AA6BA00E04013B6F030E3C6FEF0E3D6F79
:10426E00000E3E6F050E3F6F000E406FE4EC13F034
:10427E000050011001E049D2010E0001EB27000EA3
:10428E00EC23ED23EE230301A551730AD8A488D1A4
:10429E00D7EC0FF00001B86BB96B8A0E04013B6FBF
:1042AE00690E3C6F000E3D6F89EC16F0B70E0401DF
:1042BE003B6F690E3C6F000E3D6F89EC16F001C42A
:1042CE004FF402C450F4AF0E0401516F030E526F3F
:1042DE008CEC0FF0F70E3B6F690E3C6F000E3D6FCE
:1042EE0089EC16F0AF0E04014F6F030E506F00EC09
:1042FE000AF000C04FF401C050F426EC0FF000C0DD
:10430E003BF401C03CF450EC16F02D0E04013B6F53
:10431E006A0E3C6F000E3D6F89EC16F0000E040124
:10432E003B6F6A0E3C6F000E3D6F89EC16F0D9C3E1
:10433E003BF4DAC33CF4DBC33DF4DCC33EF4AF0E16
:10434E0004013F6F030E406FCFEC16F0AF0E3B6FC4
:10435E00030E3C6F50EC16F02B0E04013B6F6A0EF1
:10436E003C6F000E3D6F89EC16F0D4C34FF4AF0EC8
:10437E000401506F030E516FB4EC09F0DC0E3B6F6D
:10438E00690E3C6F000E3D6F89EC16F0AF0E040106
:10439E004F6F030E506F00EC0AF000C04FF401C0D7
:1043AE0050F426EC0FF000C03BF401C03CF450EC8E
:1043BE0016F02F0E04013B6F6A0E3C6F000E3D6F20
:1043CE0089EC16F07FC13BF480C13CF481C13DF411
:1043DE0082C13EF4AF0E04013F6F030E406FCFEC6F
:1043EE0016F0EE0E3B6F690E3C6F000E3D6F89ECC2
:1043FE0016F0AF0E04013B6F030E3C6F50EC16F03F
:10440E00330E04013B6F6A0E3C6F000E3D6F89EC5C
:10441E0016F0ECC33BF4EDC33CF4EEC33DF4EFC336
:10442E003EF4AF0E04013F6F030E406FE1EC18F047
:10443E00E50E3B6F690E3C6F000E3D6F89EC16F07A
:10444E00AF0E04014F6F030E506F00EC0AF000C068
:10445E004FF401C050F426EC0FF000C03BF401C045
:10446E003CF450EC16F0310E04013B6F6A0E3C6FBB
:10447E00000E3D6F89EC16F004013B6B52EC19F007
:10448E00010E001600B003D003017F9302D003018A
:10449E007F83CC0E0401626F030E636F646B040E98
:1044AE00656F000E666F4FEC07F0000E03017FB3D1
:1044BE00010ECC6F300ECC27D00E04013B6F690E6F
:1044CE003C6F000E3D6F89EC16F0CC0E04014F6F61
:1044DE00030E506F00EC0AF000C04FF401C050F410
:1044EE0026EC0FF000C03BF401C03CF450EC16F08B
:1044FE00060E04013B6F000E3C6F000E3D6F89EC03
:10450E0016F0010E04013B6F52EC19F000C0D1F30E
:10451E0000C04FF4CC0E506F030E516FB4EC09F087
:10452E00A90E3B6F690E3C6F000E3D6F89EC16F0C5
:10453E00CC0E04014F6F030E506F00EC0AF000C05A
:10454E004FF401C050F426EC0FF000C03BF401C054
:10455E003CF450EC16F0290E04013B6F6A0E3C6FD2
:10456E00000E3D6F89EC16F000C02CF401C02DF446
:10457E00000E011802E1000E001811E092C14FF476
:10458E00960E0401506F010E516F2CC452F42DC4BF
:10459E0053F42A0E546F040E556FDBEC07F06ED0F9
:1045AE000301A551740A35E1D06B200E04013B6F57
:1045BE00030E3C6F280E3D6F000E3E6F5AEC19F045
:1045CE00A6C33BF431EC1AF0005222E0300E030188
:1045DE00A65D006E00C0D0F300C001F0010E006EAB
:1045EE00015004E000360090FF0FFBD7030100C01E
:1045FE00D0F3D151001A00C0D1F3010E04013B6F6C
:10460E0000C03CF43DEC1AF0D1C33BF4D4EC15F0F1
:10461E0035D00301A5516C0A31E1D06B200E040197
:10462E003B6F030E3C6F280E3D6F000E3E6F5AEC33
:10463E0019F0A6C33BF431EC1AF000521FE0300E15
:10464E000301A65D006E00C0D0F300B002D07F93D0
:10465E0001D07F837FB302D0899A01D0898A7FB33C
:10466E0002D08B9001D08B8004013B6B000E0301B6
:10467E007FB3010E04013C6F3DEC1AF0000E0401F5
:10468E002D1902E1000E2C1940E10001B86BB96B37
:10469E008A0E04013B6F690E3C6F000E3D6F89EC74
:1046AE0016F0C40E04013B6F690E3C6F000E3D6F99
:1046BE0089EC16F011C13BF412C13CF413C13DF468
:1046CE0089EC16F00EC13BF40FC13CF410C13DF461
:1046DE0089EC16F000C02CF401C02DF4000E011868
:1046EE0002E1000E001811E092C14FF4960E040183
:1046FE00506F010E516F2CC452F42DC453F42A0E78
:0C470E00546F040E556FDBEC07F0120036
:10471A00550E0401626F0CEC07F0AA0E0401626FD9
:10472A000CEC07F06F0E0401626F0CEC07F0040149
:10473A00626B0CEC07F0020E0401626F0CEC07F0DE
:10474A000401626B0CEC07F02AC462F40CEC07F06B
:10475A000401626B0CEC07F0450E0401626F0CEC6D
:10476A0007F045EC13F000C02BF42BC400F0120044
:10477A000401346B550E626F0CEC07F0AA0E0401AB
:10478A00626F0CEC07F0720E0401626F0CEC07F01A
:10479A000401626B0CEC07F0020E0401626F0CEC70
:1047AA0007F00401626B0CEC07F02AC462F40CEC0B
:1047BA0007F02BC4E9FF2CC4EAFFEECF62F40CEC3D
:1047CA0007F0450E0401626F0CEC07F001011D5160
:1047DA00030182250401306F01011E510301832167
:1047EA000401316F01011F51030184210401326F59
:1047FA0001012051030185210401336F0401335162
:10480A000301855D0EE1040132510301845D09E172
:10481A00040131510301835D04E1040130510301B4
:10482A00825D04E3640E04012F6F91D048EC07F017
:10483A000052D8B48BD041EC07F000C035F4040123
:10484A003451000AFF0ED8A4000E026E0050550A19
:10485A00FF0ED8A4000E016E01500214036E3451EB
:10486A00010AFF0ED8A4000E026E0050AA0AFF0E1B
:10487A00D8A4000E016E02500116015003123451E1
:10488A00020AFF0ED8A4000E026E00501A0AFF0E8A
:10489A00D8A4000E016E0250011601500310026ED8
:1048AA003451030AFF0ED8A4000E016E0050000A0C
:1048BA00FF0ED8A4000E046E045001160150021017
:1048CA00036E3451040AFF0ED8A4000E026E005083
:1048DA00020AFF0ED8A4000E016E01500214006EE7
:1048EA0000500310016E3451050AFF0ED8A4000EC1
:1048FA00006E045000160150001202E0342B7ED7DD
:10490A003451050806E3346B3551550AD8B4342BB3
:10491A0075D73451060A07E12DC4E1FF2EC4E2FF20
:10492A0035C4E6FF0FD03451070A07E12BC4E1FF73
:10493A002CC4E2FF35C4E6FF05D03451080A02E16F
:10494A002F6B05D034510508D8A0342B57D72FC464
:04495A0000F0120057
:10495E000401356B550E626F0CEC07F0AA0E0401C4
:10496E00626F0CEC07F0730E0401626F0CEC07F033
:10497E000401626B0CEC07F0020E0401626F0CEC8A
:10498E0007F00401626B0CEC07F02AC4E9FF2BC49C
:10499E00EAFFEECF62F40CEC07F00401626B0CEC54
:1049AE0007F0450E0401626F0CEC07F001011D517A
:1049BE00030182250401316F01011E510301832180
:1049CE000401326F01011F51030184210401336F71
:1049DE0001012051030185210401346F040134517A
:1049EE000301855D0EE1040133510301845D09E18C
:1049FE00040132510301835D04E1040131510301CD
:104A0E00825D04E3640E0401306FB8D048EC07F009
:104A1E000052D8B4B2D041EC07F000C036F4040115
:104A2E003551000AFF0ED8A4000E026E0050550A32
:104A3E00FF0ED8A4000E016E01500214036E355104
:104A4E00010AFF0ED8A4000E026E0050AA0AFF0E35
:104A5E00D8A4000E016E02500116015003123551FA
:104A6E00020AFF0ED8A4000E026E00501B0AFF0EA3
:104A7E00D8A4000E016E0250011601500310026EF2
:104A8E003551030AFF0ED8A4000E016E0050000A25
:104A9E00FF0ED8A4000E046E045001160150021031
:104AAE00036E3551040AFF0ED8A4000E026E00509C
:104ABE00140AFF0ED8A4000E016E01500214006EEF
:104ACE0000500310016E3551050AFF0ED8A4000EDA
:104ADE00006E045000160150001202E0352B7ED7F6
:104AEE003551050806E3356B3651550AD8B4352BCA
:104AFE0075D73551060A07E12AC4E1FF2BC4E2FF40
:104B0E0036C4E6FF36D03551080A07E12CC4E1FF62
:104B1E002DC4E2FF36C4E6FF2CD03551090A09E157
:104B2E00010E2C25E16E000E2D21E26E36C4E6FF3D
:104B3E0020D00A0E355D000ED8B0FF0E016E355135
:104B4E000D08000ED8B0FF0E006E015000160CE0DE
:104B5E000A0E355D006E00502E25E16E000E2F21DF
:104B6E00E26E36C4E6FF05D035511A0A02E1306B0B
:104B7E0005D035510508D8A0352B30D730C400F0FC
:024B8E00120013
:104B90000401306B326B336B01011D51030182251F
:104BA00004012C6F01011E510301832104012D6FAB
:104BB00001011F510301842104012E6F01012051C5
:104BC0000301852104012F6F550E626F0CEC07F075
:104BD000AA0E0401626F0CEC07F0510E0401626F23
:104BE0000CEC07F00401626B0CEC07F0020E040100
:104BF000626F0CEC07F00401626B0CEC07F004012F
:104C00002A05626F0CEC07F00401626B0CEC07F0F4
:104C1000450E0401626F0CEC07F03C0E0401346F8A
:104C2000010E356F04012F510301855D0EE1040172
:104C30002E510301845D09E104012D510301835DBF
:104C400004E104012C510301825D04E3640E0401BC
:104C50002B6FAED048EC07F00052D8B4A8D041EC8E
:104C600007F000C031F404013051000AFF0ED8A44F
:104C7000000E026E0050550AFF0ED8A4000E016E01
:104C800001500214036E3051010AFF0ED8A4000E29
:104C9000026E0050AA0AFF0ED8A4000E016E025048
:104CA0000116015003123051020AFF0ED8A4000E63
:104CB000026E0050160AFF0ED8A4000E016E0250BC
:104CC0000116015003123051030AFF0ED8A4000E42
:104CD000026E0050000AFF0ED8A4000E016E0150B3
:104CE0000214006E0350001202E0302B9BD73051AB
:104CF000030819E33051020AFF0ED8A4000E016E1A
:104D00003151010AFF0ED8A4000E006E01500016AA
:104D100004E0010E326F302B05D0306B3151550A53
:104D2000D8B4302B7FD73251010AFF0ED8A4000E21
:104D3000016E3051060AFF0ED8A4000E006E01501D
:104D4000001609E03151FF0A03E1010E336F02D072
:104D5000306B68D728D03351010AFF0ED8A4000E5B
:104D6000016E3051080AFF0ED8A4000E006E0150EB
:104D7000001603E031C42BF41BD030513F0A02E18E
:104D80002B6B16D0060E305D0EE330513425006ECD
:104D9000000E3521016E060E005CE16E000E01581A
:104DA000E26E31C4E6FF30510308D8A0302B3AD769
:064DB0002BC400F012000C
:104DB6002AC404F02BC405F004012E512F1124E05F
:104DC600010E2E5F000E2F5B04C002F005C003F03B
:104DD600044A052A2CC400F02DC401F02C4B2D2BBF
:104DE60000C0E9FF01C0EAFF02C0E1FF03C0E2FF25
:104DF600EECFE6FF02C0E9FF03C0EAFFEECF00F008
:104E0600005201E101D0D8D72EC400F02FC401F022
:104E1600010E2E5F000E2F5B0050011008E004C04B
:104E2600E1FF05C0E2FFE66A044A052AEDD72AC477
:084E360000F02BC401F0120092
:104E3E000401396B550E626F0CEC07F0AA0E0401DB
:104E4E00626F0CEC07F07A0E0401626F0CEC07F047
:104E5E000401626B0CEC07F00A0E0401626F0CEC9D
:104E6E0007F00401626B0CEC07F02AC462F40CEC40
:104E7E0007F02BC462F40CEC07F02CC462F40CECBB
:104E8E0007F02DC462F40CEC07F02EC462F40CECA7
:104E9E0007F02FC462F40CEC07F030C462F40CEC93
:104EAE0007F031C462F40CEC07F032C462F40CEC7F
:104EBE0007F033C462F40CEC07F0450E0401626F88
:104ECE000CEC07F001011D51030182250401356F21
:104EDE0001011E51030183210401366F01011F518F
:104EEE00030184210401376F010120510301852143
:104EFE000401386F040138510301855D0EE1040190
:104F0E0037510301845D09E1040136510301835DCC
:104F1E0004E1040135510301825D04E3640E0401D2
:104F2E00346F81D048EC07F00052D8B47BD041ECFE
:104F3E0007F000C03AF404013951000AFF0ED8A45C
:104F4E00000E026E0050550AFF0ED8A4000E016E20
:104F5E0001500214036E3951010AFF0ED8A4000E3F
:104F6E00026E0050AA0AFF0ED8A4000E016E025067
:104F7E000116015003123951020AFF0ED8A4000E79
:104F8E00026E0050200AFF0ED8A4000E016E0250D1
:104F9E00011601500310026E3951030AFF0ED8A4F8
:104FAE00000E016E0050000AFF0ED8A4000E046E13
:104FBE000450011601500210036E3951040AFF0EFF
:104FCE00D8A4000E026E0050020AFF0ED8A4000EE6
:104FDE00016E01500214006E00500310016E395123
:104FEE00050AFF0ED8A4000E006E045000160150E4
:104FFE00001202E0392B7ED73951050806E3396BD2
:10500E003A51550AD8B4392B75D73951060A02E1EF
:10501E003AC434F43951080A01E105D03951050872
:0C502E00D8A0392B67D734C400F0120062
:10503A000401326B346B550E626F0CEC07F0AA0E4A
:10504A000401626F0CEC07F0500E0401626F0CEC65
:10505A0007F00401626B0CEC07F0020E0401626FA8
:10506A000CEC07F00401626B0CEC07F02AC462F442
:10507A000CEC07F00401626B0CEC07F0450E04011E
:10508A00626F0CEC07F001011D5103018225040136
:10509A002E6F01011E510301832104012F6F0101AB
:1050AA001F51030184210401306F010120510301C2
:1050BA0085210401316F45EC13F000C02DF4040181
:1050CA002D51000A01E099D0040131510301855D97
:1050DA000EE1040130510301845D09E104012F51FD
:1050EA000301835D04E104012E510301825D03E3A0
:1050FA00640E04012D6F48EC07F00052D8B47CD03E
:10510A0041EC07F000C033F404013251000AFF0EEB
:10511A00D8A4000E026E0050550AFF0ED8A4000E45
:10512A00016E01500214036E3251010AFF0ED8A417
:10513A00000E026E0050AA0AFF0ED8A4000E016EDD
:10514A0002500116015003123251020AFF0ED8A46E
:10515A00000E026E0050010AFF0ED8A4000E016E66
:10516A0002500116015003123251030AFF0ED8A44D
:10517A00000E026E0050000AFF0ED8A4000E016E47
:10518A0001500214006E0350001202E0322B9CD729
:10519A003251030806E3326B3351550AD8B4322B25
:1051AA0093D73251060A0BE13351FF0A03E1010E8C
:1051BA00346F05D03351090A02E0326B85D7345176
:1051CA00010A07E13251080A03E133C42DF415D06C
:1051DA000FD03251070A07E12BC4E1FF2CC4E2FFCA
:1051EA0033C4E6FF05D03251080A02E12D6B05D01F
:1051FA0032510308D8A0322B67D72DC400F0120011
:10520A002EC400F004012E07005228E02AC4E9FF48
:10521A002BC4EAFFEE50000A0CE02AC4E9FF2BC4B3
:10522A00EAFF2CC4D9FF2DC4DAFFEE50DE1801E1E3
:10523A000FD02AC4E9FF2BC4EAFF2CC4D9FF2DC41E
:10524A00DAFFDE50EE5C006E016A000E015A08D0E9
:10525A0004012A4B2B2B2C4B2D2BD2D7006A016A27
:02526A00120030
:10526C000401326B346B550E626F0CEC07F0AA0E16
:10527C000401626F0CEC07F05A0E0401626F0CEC27
:10528C0007F00401626B0CEC07F0020E0401626F74
:10529C000CEC07F00401626B0CEC07F02AC462F40E
:1052AC000CEC07F00401626B0CEC07F0450E0401EA
:1052BC00626F0CEC07F001011D5103018225040102
:1052CC002E6F01011E510301832104012F6F010177
:1052DC001F51030184210401306F0101205103018E
:1052EC0085210401316F45EC13F000C02DF404014D
:1052FC002D51000A01E0B2D0040131510301855D4A
:10530C000EE1040130510301845D09E104012F51C8
:10531C000301835D04E104012E510301825D04E36A
:10532C00640E04012D6F9AD048EC07F00052D8B4EB
:10533C0094D041EC07F000C033F404013251000A60
:10534C00FF0ED8A4000E026E0050550AFF0ED8A412
:10535C00000E016E01500214036E3251010AFF0E51
:10536C00D8A4000E026E0050AA0AFF0ED8A4000E9C
:10537C00016E02500116015003123251020AFF0E47
:10538C00D8A4000E026E0050010AFF0ED8A4000E25
:10539C00016E02500116015003123251030AFF0E26
:1053AC00D8A4000E026E0050000AFF0ED8A4000E06
:1053BC00016E01500214006E0350001202E0322BF9
:1053CC009BD73251030806E3326B3351550AD8B4DC
:1053DC00322B92D73251060A0CE13351FF0A03E10A
:1053EC00010E346F05D03351080A02E0326B84D7BA
:1053FC0030D03251070AFF0ED8A4000E016E345182
:10540C00010A000ED8A4FF0E006E0150001607E032
:10541C002BC4E1FF2CC4E2FF33C4E6FF1AD0325197
:10542C00080AFF0ED8A4000E016E3451010AFF0EBB
:10543C00D8A4000E006E0150001603E033C42DF406
:10544C000DD032510A0A05E13351450A02E12D6BA8
:10545C0005D032510308D8A0322B4ED72DC400F002
:02546C0012002C
:10546E00010E04016A6F1FEC01F0010E04014F6F73
:10547E00010E506F560E516F000E526F4DEC0EF026
:10548E00290E0B6E960E0C6E7F0E0D6E0D2EFED728
:10549E000C2EFCD70B2EFAD70401006B0051010A1B
:1054AE00D8B497D00401FF0E2A6F070E2B6F040E8F
:1054BE002C6FBCDD0050000A01E10ED0150E0B6EF4
:1054CE004B0E0C6EBE0E0D6E0D2EFED70C2EFCD797
:1054DE000B2EFAD70000E6D7010E0401086F085113
:1054EE00075DD8A075D008C42AF4C8EC25F0090EC3
:1054FE0004012A6F040E2B6F430E2C6F010E2D6FBD
:10550E0042C12EF4000E2F6F4FDC010142510D08E7
:10551E0009E20401176B2E0E166F2E0E156F2E0E4E
:10552E00146F0AD0090EE16E040EE26E01014251B3
:10553E00E126D8B0E22AE66A010E04016A6F1FEC7A
:10554E0001F0010E04014F6F010E506F720E516F7C
:10555E00000E526F4DEC0EF0020E04014F6F010E55
:10556E00506F090E516F040E526F4DEC0EF0430E3C
:10557E0004012A6F010E2B6F650E2C6F000E2D6F1E
:10558E0042C12EF43BDE000E011802E1000E00189F
:10559E0010E1010E0401006F1D0E0B6E690E0C6EF4
:1055AE00A50E0D6E0D2EFED70C2EFCD70B2EFAD798
:1055BE000FD01D0E0B6E690E0C6EA50E0D6E040136
:1055CE000D2EFDD70C2EFBD70B2EF9D7082B87D718
:0455DE0065D712007B
:1055E2000900F5CFE6FF0006FBE10106F9E1120032
:1055F2000F01396B3A6B3B6B3C6B388138833899BE
:10560200389B928092829288929A956A9494949608
:1056120094929490606A8C6A8B908B928B948B9606
:10562200D66AC70ED56EF28EF28A96948D84010EDA
:1056320004012A6F2B6B2C6B2D6BDBEC1AF0050E21
:105642000B6E0F0E0C6EF10E0D6E0D2EFED70C2E84
:10565200FCD70B2EFAD715EC1CF0010E04016A6F71
:105662001FEC01F00C0E04016A6F1FEC01F0010E39
:1056720004016A6F1FEC01F0010E04014F6F010E6D
:10568200506FCF0E516F000E526F4DEC0EF0020EA6
:1056920004014F6F010E506FBE0E516F000E526F1C
:1056A2004DEC0EF0520E0B6E2B0E0C6E000E0D6EAC
:1056B2000D2EFED70C2EFCD70B2EFAD70000840E2F
:1056C20004012A6F0F0E2B6F010E2C6FF4EC1BF0EE
:1056D200E9EC1BF0E80E04013B6F030E3C6F900EE9
:0C56E2003D6F010E3E6F5AEC19F01200F3
:1056EE001A0E0301986F010E996F6B0E9A6F040ECE
:1056FE009B6F8A0E8B6F000E8C6F000E8D6F000EDF
:10570E008E6F800E876F000E886F000E896F000EF1
:10571E008A6F760E8F6F000E906F000E916F000ED7
:10572E00926FAC8A900EAB6E948E949C9EAA03D010
:08573E00AECF00F0FBD7120012
:10574600010E04016A6F1FEC01F0010E04014F6F98
:10575600010E506F300E516F000E526F4DEC0EF071
:10576600020E04014F6F010E506F470E516F000E6F
:10577600526F4DEC0EF0520E0B6E2B0E0C6E000E91
:105786000D6E0D2EFED70C2EFCD70B2EFAD7000071
:10579600010E01011D6F000E1E6F1F6F206F010E9F
:1057A6000401006F04010051000A09E0020E2A6F8D
:1057B600010E2B6F78EC1CF000C000F4F3D7050E39
:1057C60001011D6F000E1E6F1F6F206F0B0E04016F
:1057D6002A6F3C0E2B6F000E2C6F7FEC1DF0010E16
:1057E60004012A6F060E2B6FF90E2C6F000E2D6F1B
:1057F600FCEC1CF0010E04012A6F650E2B6F000EE7
:105806002C6FA8EC1CF0F50E04012A6F000E2B6F0E
:1058160099EC1AF00A0E04012A6F010E2B6F57EC51
:105826001AF0040E04012A6F010E2B6F7FEC1BF099
:10583600E70E04012A6F000E2B6F34EC1BF0010EED
:1058460004012A6F000E2B6FB9EC1BF0050E040144
:105856002A6F2B6B04EC1BF0020E04012A6F2B6BD4
:10586600000E2C6F080E2D6F000E2E6F080E2F6F78
:0E587600306B316B326B336B1FEC27F012007E
:10588400010E04016A6F1FEC01F0010E04014F6F59
:10589400010E506F220E516F000E526F4DEC0EF040
:1058A400020E04014F6F010E506F160E516F000E61
:1058B400526F4DEC0EF0010E01011D6F000E1E6FB4
:1058C4001F6F206F010E04012A6F1C0E2B6F010E37
:1058D4002C6FCADC01013B6BB7EC1FF001013B519B
:1058E400010A01E110D0C0EC20F0150E0B6E4B0E36
:1058F4000C6EBE0E0D6E0D2EFED70C2EFCD70B2E8D
:10590400FAD70000E9D7050E01011D6F000E1E6FC6
:105914001F6F206F200E04013B6F030E3C6F900E2F
:105924003D6F010E3E6F5AEC19F0030E0B6E080E1C
:105934000C6E770E0D6E0D2EFED70C2EFCD70B2E93
:10594400FAD7200E04013B6F030E3C6F900E3D6F9F
:0A595400010E3E6F5AEC19F012002C
:10595E000101916B010E956F500E936F000E946FB7
:10596E00910E04012A6F010E2B6F010E2C6FC6ECE7
:10597E001DF091C12AF4930E04012B6F010E2C6FB2
:10598E00220E2D6F010E2E6FAAEC1EF091C12AF47D
:10599E00950E04012B6F010E2C6F210E2D6F010E33
:1059AE002E6FBDEC23F091C192F1920E04012A6F7D
:1059BE00010E2B6F270E2C6F010E2D6F230E2E6FE7
:1059CE00010E2F6FAFEC24F001019251FE0A01E09F
:1059DE0001D0E9D717EC21F092C12AF48DEC23F017
:0C59EE0091C12AF48DEC23F0B3D7120015
